:060000000A128A1100291A
:10000800F000030EF1000B1917210C183B21710E9B
:080018008300F00E700E0900D8
:100200000A2148214F215C216C21031383122C21E8
:1002100034210729031783168801890103138316E4
:1002200087018801031383128701880108000313E3
:100230008312FA3081000B111E210800081088106B
:100240002218272925088700881422140800260868
:1002500087000814221008000F302105A300F03099
:100260002105A400A40E080023080022A5002408EC
:100270000022A6000800031383120B308F00DC302D
:100280008E000C10A00AA01C0800A001A10A080002
:10029000031383160F140F178F160F120800031382
:1002A0008316811281110115811401140313831225
:1002B000FA3081000B110800031383129010901183
:1002C0009016101610131014031383120B308F00A6
:1002D000DC308E000C100800031383160C1403137B
:0E02E00083128B170B178B160B110C100800D6
:100400008A018A140F3982073F3406345B344F3433
:1004100066346D347D3407347F346F3477347C3404
:0804200039345E347934713483
:04400E00C430FF3F7C
:00000001FF
